{
  "_format": "hh-sol-artifact-1",
  "contractName": "HashStorage",
  "sourceName": "contracts/hashstorage.sol",
  "abi": [
    {
      "inputs": [
        {
          "internalType": "string",
          "name": "hash",
          "type": "string"
        }
      ],
      "name": "hasHash",
      "outputs": [
        {
          "internalType": "bool",
          "name": "",
          "type": "bool"
        }
      ],
      "stateMutability": "view",
      "type": "function"
    },
    {
      "inputs": [
        {
          "internalType": "string",
          "name": "",
          "type": "string"
        }
      ],
      "name": "hashes",
      "outputs": [
        {
          "internalType": "bool",
          "name": "",
          "type": "bool"
        }
      ],
      "stateMutability": "view",
      "type": "function"
    },
    {
      "inputs": [
        {
          "internalType": "string",
          "name": "hash",
          "type": "string"
        }
      ],
      "name": "store",
      "outputs": [],
      "stateMutability": "nonpayable",
      "type": "function"
    }
  ],
  "bytecode": "0x608060405234801561001057600080fd5b5061023b806100206000396000f3fe608060405234801561001057600080fd5b50600436106100415760003560e01c8063131a068014610046578063685e0dc71461005b578063e21016d31461009d575b600080fd5b610059610054366004610125565b6100b0565b005b610089610069366004610125565b805160208183018101805160008252928201919093012091525460ff1681565b604051901515815260200160405180910390f35b6100896100ab366004610125565b6100e5565b60016000826040516100c291906101d6565b908152604051908190036020019020805491151560ff1990921691909117905550565b600080826040516100f691906101d6565b9081526040519081900360200190205460ff1692915050565b634e487b7160e01b600052604160045260246000fd5b60006020828403121561013757600080fd5b813567ffffffffffffffff8082111561014f57600080fd5b818401915084601f83011261016357600080fd5b8135818111156101755761017561010f565b604051601f8201601f19908116603f0116810190838211818310171561019d5761019d61010f565b816040528281528760208487010111156101b657600080fd5b826020860160208301376000928101602001929092525095945050505050565b6000825160005b818110156101f757602081860181015185830152016101dd565b50600092019182525091905056fea26469706673582212204ee2e59d895318ca47b97b376e6c98d6c272918875b07a63fea1a0fd899363bd64736f6c63430008180033",
  "linkReferences": {},
  "deployedLinkReferences": {}
}